:100000000C946D000C9495000C9495000C9455057F
:100010000C9455050C9455050C9495000C94950082
:100020000C9495000C9495000C9495000C949500FC
:100030000C9495000C9495000C9495000C949500EC
:100040000C940B050C9495000C9495000C94950061
:100050000C9495000C9495000C9495000C949500CC
:100060000C9495000C94950036033C03460354030E
:1000700056035C03660374038603880300000000D4
:1000800023002600290000000000240027002A0089
:1000900000000000250028002B00040404040404D0
:1000A0000404020202020202030303030303010227
:1000B00004081020408001020408102001020408F6
:1000C00010200000000800020100000304070000E7
:1000D0000000000000006D07720811241FBECFEF62
:1000E000D8E0DEBFCDBF11E0A0E0B1E0EEE2F2E18A
:1000F00002C005900D92A031B107D9F721E0A0E12F
:10010000B1E001C01D92A03BB207E1F710E0CCE6E0
:10011000D0E004C02197FE010E94AF08CB36D10782
:10012000C9F70E94CF050C940A090C9400002FB760
:10013000F89480918D0190918E01A0918F01B091E2
:1001400090012FBF8093990190939A01A0939B01F6
:10015000B0939C01E0919101F09192010084F185AE
:10016000E02D81E991E0099597FF26C02FB7F8941B
:1001700080918D0190918E01A0918F01B09190019D
:100180002FBF4091990150919A0160919B0170910C
:100190009C01841B950BA60BB70B409195015091C8
:1001A0009601609197017091980184179507A607B1
:1001B000B70780F28FEF9FEF0895FF920F931F9381
:1001C000CF93DF9300D000D0CDB7DEB70E94970069
:1001D000FC0197FD11C08D32910591F0C0970A97EF
:1001E00078F0E0919101F09192010680F781E02D85
:1001F00081E991E00995EACF60E070E0CB014CC065
:1002000020E030E0A901F12CE130F105F1F0ED3210
:10021000F105C9F0CF01C0970A97B8F4AAE0B0E0A1
:100220000E94F0088F01FF0F220B330BDC01CB0182
:10023000800F911FA21FB31F9C01AD0120533109F4
:100240004109510902C0FF24F394E0919101F0911A
:1002500092010680F781E02D81E991E029833A83BC
:100260004B835C8309950E949700FC01C09729810C
:100270003A814B815C810A9738F2E130F10521F235
:10028000FF2041F066277727CB01621B730B840B9D
:10029000950B02C0CA01B9010F900F900F900F90FB
:1002A000DF91CF911F910F91FF900895CF92DF9230
:1002B000EF92FF920F931F93CF93DF936C017A011C
:1002C0008B01C0E0D0E0CE15DF0589F0D8016D913B
:1002D0008D01D601ED91FC910190F081E02DC601D8
:1002E0000995892B11F47E0102C02196ECCFC7013C
:1002F000DF91CF911F910F91FF90EF90DF90CF9002
:100300000895089590E0FC01EE53FF4F3491FC01F5
:10031000E255FF4F2491FC01E656FF4FE491EE2396
:1003200009F43BC0332339F1333091F038F43130E4
:10033000A9F0323001F584B58F7D12C0373091F0CD
:100340003830A1F03430B9F4809180008F7D03C043
:10035000809180008F77809380000DC084B58F7767
:1003600084BD09C08091B0008F7703C08091B00038
:100370008F7D8093B000F0E0EE0FFF1FE057FF4F3E
:10038000A591B4918FB7F894EC91611103C02095B9
:100390002E2301C02E2B2C938FBF0895CF93DF9374
:1003A00090E0FC01E255FF4F2491FC01E656FF4F1F
:1003B0008491882361F190E0880F991FFC01EA572E
:1003C000FF4FC591D491FC01E057FF4FA591B49127
:1003D000611109C09FB7F894888120958223888392
:1003E000EC912E230BC0623061F49FB7F8943881F2
:1003F000822F809583238883EC912E2B2C939FBF93
:1004000006C08FB7F894E8812E2B28838FBFDF9129
:10041000CF9108952091570130915801281739073D
:1004200071F49091550180915601981741F0E09137
:100430005501F0E0E05FFE4F808190E008958FEF7E
:100440009FEF08951F93CF93DF93DC015C962D916E
:100450003C915D972115310539F481E090E01396C8
:100460009C938E9312973DC05196ED91FC915297BB
:1004700050969C915097892F80951FB75E964C910E
:100480005E9741FB772770F941FD6095F8944081B4
:10049000772311F0492B01C048234083E9012197BC
:1004A000F1F748E0508160FF02C0592B01C058238A
:1004B0005083E9012197F1F76695415099F7772329
:1004C00021F090818923808303C08081982B9083C1
:1004D0001FBF5C968D919C915D970197F1F721E08C
:1004E00030E0C901DF91CF911F910895209157010C
:1004F000309158012817390771F4809156012091E5
:10050000550190E0805C9F4F821B910960E470E090
:100510000E947C08089580E090E0089520915701A2
:100520003091580128173907B9F4909155018091FD
:100530005601981789F0E0915501F0E0E05FFE4F19
:1005400080812091550130E02F5F3F4F2F7333277B
:100550002093550190E008958FEF9FEF0895E0916B
:100560005701F0915801E817F90769F4A389B48994
:100570009C918589809589238C93109258011092C3
:10058000570181E0089580E008950F931F93CF9362
:10059000DF93EC018B01888599850297F1F4613036
:1005A000710569F024F4672BC1F460E009C0623082
:1005B000710559F06330710581F460E007C061E0B6
:1005C0008C850E94820161E005C061E08C850E94FB
:1005D000820160E08E850E9482018885998504975A
:1005E000B9F501301105B1F04CF40115110581F593
:1005F00061E08C850E94820160E011C0023011052B
:10060000B9F00330110521F561E08C850E9482016B
:1006100060E013C060E08C850E94820161E08E85FD
:100620000E94820161E088890E94820160E00DC021
:1006300060E08C850E94820161E08E850E948201CB
:1006400060E088890E94820161E08A890E948201BB
:1006500088859985059709F073C00A30110508F05F
:100660006FC0F801EC5CFF4F0C94AF0860E08C8524
:100670000E94820161E051C060E08C850E9482018D
:1006800061E08E850E94820160E04BC060E08C8555
:100690000E94820161E08E850E94820160E088896B
:1006A0000E94820161E041C060E001C061E08C8590
:1006B0000E94820161E005C061E08C850E94820198
:1006C00060E08E850E94820160E009C061E08C8557
:1006D0000E94820160E08E850E94820161E088892B
:1006E0000E94820161E00DC061E08C850E94820160
:1006F00060E08E850E94820161E088890E9482010B
:1007000060E08A890E94820160E013C061E001C05C
:1007100060E08C850E94820160E08E850E948201EB
:1007200061E088890E94820160E08A890E948201DA
:1007300061E08C89DF91CF911F910F910C94820120
:10074000DF91CF911F910F9108958F929F92AF9259
:10075000BF92CF92DF92EF92FF920F931F93CF93AE
:10076000DF93EC018B0177FF04C000271127061BE4
:10077000170B161617062CF481E090E099838883F6
:1007800004C0672B11F01982188254E0E52EF12C79
:100790006AE0C62ED12C0115110509F469C03FB7D6
:1007A000F8948091500190915101A0915201B09123
:1007B000530126B5A89B05C02F3F19F00196A11D36
:1007C000B11D3FBFBA2FA92F982F8827820F911DE7
:1007D000A11DB11D42E0880F991FAA1FBB1F4A959A
:1007E000D1F74E895F89688D798D4C015D01841A3E
:1007F000950AA60AB70A4A815B816C817D818416BD
:100800009506A606B70638F28E8B9F8BA88FB98FF8
:10081000288139818A859B852130310559F40196DB
:100820009B878A872E813F818217930771F41B86ED
:100830001A860BC0892B21F48E819F819B878A8722
:100840008A859B8501979B878A8701501109288596
:1008500039858A859B852530310511F4B60101C0A3
:10086000B7010E947C08BC01CE010E94C50293CF53
:10087000DF91CF911F910F91FF90EF90DF90CF907C
:10088000BF90AF909F908F9008950F931F93CF9339
:10089000DF9341E1469F9001479F300D112437FFC0
:1008A00002C02F5F3F4FE901D595C795823591056D
:1008B000C1F501E010E0C017D1077CF06FEF7FEFCA
:1008C00083E791E00E94A5036FEF7FEF89E591E058
:1008D0000E94A5030F5F1F4FEECF60E088E00E94EB
:1008E000820160E089E00E94820160E08AE00E946B
:1008F000820160E08BE00E94820160E082E00E9461
:10090000820160E083E00E94820160E084E00E9456
:10091000820160E085E0DF91CF911F910F910C94EF
:10092000820182379105C9F601E010E0C017D107B6
:10093000A4F261E070E083E791E00E94A50361E02A
:1009400070E089E591E00E94A5030F5F1F4FEECF95
:10095000CF92DF92EF92FF920F931F93CF93DF938B
:10096000863409F447C0843509F04AC0EE24EA947D
:10097000FE2C01E010E027E5269F6001279FD00CA8
:100980001124C0E0D0E0CC16DD0664F0B80183E7A6
:1009900091E00E94A503B70189E591E00E94A503BB
:1009A0002196F1CF60E088E00E94820160E089E05A
:1009B0000E94820160E08AE00E94820160E08BE098
:1009C0000E94820160E082E00E94820160E083E098
:1009D0000E94820160E084E00E94820160E085E084
:1009E000DF91CF911F910F91FF90EF90DF90CF900B
:1009F0000C948201EE24E394F12C0FEF1FEFBBCF98
:100A0000DF91CF911F910F91FF90EF90DF90CF90EA
:100A100008950E94EB081F920F920FB60F921124B7
:100A20002F933F938F939F93AF93BF9380918D01AB
:100A300090918E01A0918F01B0919001309154015D
:100A400023E0230F2D3720F40196A11DB11D05C011
:100A500026E8230F0296A11DB11D20935401809317
:100A60008D0190938E01A0938F01B093900180919E
:100A7000500190915101A0915201B0915301019602
:100A8000A11DB11D8093500190935101A09352017B
:100A9000B0935301BF91AF919F918F913F912F914F
:100AA0000F900FBE0F901F9018951F920F920FB6C8
:100AB0000F9211242F933F934F935F936F937F93E4
:100AC0008F939F93AF93BF93EF93FF93E091570161
:100AD000F0915801309709F451C0968DA685B785DD
:100AE000858591FF04C09C91892329F447C09C917E
:100AF000892309F043C0A389B4899C918589809595
:100B000089238C93868997890197F1F7608D718D80
:100B1000A685B785558538E020E0CB010197F1F730
:100B2000822F90E095958795282F4C91452309F0C9
:100B30002068315091F7868D81FD20958091560176
:100B400090E001968F73992730915501381749F03D
:100B5000A0915601B0E0A05FBE4F2C938093560148
:100B600003C0868D8160868F828D938D0197F1F70A
:100B7000A389B4899C918589892B8C93FF91EF91EE
:100B8000BF91AF919F918F917F916F915F914F91A5
:100B90003F912F910F900FBE0F901F901895789452
:100BA00084B5826084BD84B5816084BD85B5826072
:100BB00085BD85B5816085BD80916E008160809323
:100BC0006E0010928100809181008260809381008C
:100BD000809181008160809381008091800081609C
:100BE000809380008091B10084608093B1008091F7
:100BF000B00081608093B00080917A00846080931F
:100C00007A0080917A00826080937A0080917A00E5
:100C1000816080937A0080917A00806880937A0066
:100C20001092C1001092AC011092AB011092AA0177
:100C30001092A9011092A8011092A7018DE991E0EC
:100C40009093AE018093AD0190919D01963108F093
:100C500057C02DEB30E03093A8012093A7012BE97A
:100C600031E03093AA012093A9012CE231E03093C6
:100C7000AC012093AB0120916800983050F031E036
:100C80009E3008F430E081E001C0880F3A95EAF721
:100C900001C084E0822B80936800983038F09E3049
:100CA00040F0963148F020E030E008C02DE630E01A
:100CB00005C02BE630E002C02CE630E03093A50101
:100CC0002093A401983030F481E001C0880F9A95F8
:100CD000EAF70EC0292F30E09E3018F42850310971
:100CE00002C02E50310981E001C0880F2A95EAF731
:100CF0008093A6018091AD019091AE010197F1F72B
:100D00008091AB019091AC01892B21F18091570129
:100D10009091580121E081399207E1F0009711F09C
:100D20000E94AF028091AF018E7F8093AF0110923D
:100D300056011092550181E991E0909358018093FA
:100D40005701E091A401F091A50190818091A60145
:100D5000892B8083C12C87E8D82E83E9E82E83E095
:100D6000F82E90E2892E93E0992EA12CB12C21E14E
:100D7000722E00E010E02091790130917A01032E6B
:100D8000000C440B550BC701B6010E949008CA0124
:100D9000B901A50194010E94900820937501309338
:100DA0007601409377015093780120915F01309153
:100DB0006001032E000C440B550BC701B6010E94C5
:100DC0009008CA01B901A50194010E9490082093DE
:100DD0005B0130935C0140935D0150935E0181E9BA
:100DE00091E00E947602892B09F470C081E991E0BC
:100DF0000E948E02C82F863411F0843529F40E9497
:100E0000DD008C2F0E94A804DC2FDF7D8CEB8D0F82
:100E1000823008F042C00E94DD00769E9001779EED
:100E2000300D1124C53411F4B9010DC0C43429F4B6
:100E300066277727621B730B0CC0C53639F466270B
:100E40007727621B730B89E591E005C0C43629F44E
:100E5000B90183E791E00E94A50360E088E00E9469
:100E6000820160E089E00E94820160E08AE00E94E5
:100E7000820160E08BE00E94820160E082E00E94DB
:100E8000820160E083E00E94820160E084E00E94D1
:100E9000820160E085E00E948201C33471F40E9407
:100EA000DD0065E070E086E40E94A80465E070E083
:100EB00082E590E00E944504F4CFD23539F40E94D7
:100EC000DD008C2FCC0F990B0E94450401151105F4
:100ED00009F451CF0E9400004ECF0F931F93CF9380
:100EE000DF9310927E0110927D0110927401109296
:100EF00073011092890110928A0110928B01109255
:100F00008C0100E210E010937A010093790188E0EF
:100F100090E09093800180937F018AE090E090932D
:100F200082018093810189E090E090938401809315
:100F300083018BE090E0909386018093850161E0CE
:100F400088E00E94CE0161E0809181010E94CE0183
:100F500061E0809183010E94CE0161E08091850172
:100F60000E94CE011092880110928701C4E0D0E067
:100F7000D0937C01C0937B011092640110926301B5
:100F800010925A011092590110926F011092700143
:100F900010927101109272011093600100935F0131
:100FA00082E090E09093660180936501D0936801A0
:100FB000C093670183E090E090936A018093690198
:100FC00085E090E090936C0180936B0161E082E09A
:100FD0000E94CE0161E0809167010E94CE0161E034
:100FE000809169010E94CE0161E080916B010E94B5
:100FF000CE0110926E0110926D01D0936201C093E8
:101000006101109294011092930188EE93E0A0E0A8
:10101000B0E08093950190939601A0939701B093CF
:10102000980184E091E09093920180939101109255
:10103000A8011092A7011092AA011092A901109282
:10104000AC011092AB011092AE011092AD01609113
:10105000AF016E7F6D7F6093AF016695617081E037
:1010600068278DE00E94820161E08DE00E94CE0140
:10107000EBEBF0E0E491E093A101E7EAF0E0E4912A
:10108000F0E0EE0FFF1FE057FF4F85919491909392
:10109000A3018093A20160E08CE00E94CE018091C8
:1010A000AF0181FD04C061E08CE00E9482018CE010
:1010B00080939D01EAEBF0E0E491E0939E01E6EA83
:1010C000F0E0E491F0E0EE0FFF1FE458FF4F859150
:1010D00094919093A00180939F01DF91CF911F91F4
:1010E0000F91089584E091E0909392018093910193
:1010F00081E991E00C94AF0297FB072E16F400945F
:1011000007D077FD09D00E94B50807FC05D03EF452
:10111000909581959F4F0895709561957F4F0895A3
:10112000052E97FB1EF400940E94A70857FD07D0D8
:101130000E94C90807FC03D04EF40C94A7085095F0
:101140004095309521953F4F4F4F5F4F08959095B3
:101150008095709561957F4F8F4F9F4F0895EE0F4B
:10116000FF1F0590F491E02D0994AA1BBB1B51E1D0
:1011700007C0AA1FBB1FA617B70710F0A61BB70B07
:10118000881F991F5A95A9F780959095BC01CD01AC
:101190000895A1E21A2EAA1BBB1BFD010DC0AA1FB8
:1011A000BB1FEE1FFF1FA217B307E407F50720F0D0
:1011B000A21BB30BE40BF50B661F771F881F991F4B
:1011C0001A9469F760957095809590959B01AC0194
:1011D000BD01CF01089581E090E0F8940C940A09D4
:1011E0000E94FB08A59F900DB49F900DA49F800DB9
:1011F000911D11240895A29FB001B39FC001A39F28
:10120000700D811D1124911DB29F700D811D11243F
:10121000911D089510E0CCE6D0E004C0FE010E94CC
:0E122000AF082196CD36D107C9F7F894FFCF5D
:10122E00000000002202560176028E020A0281019F
:00000001FF
